{
  "_format": "hh-sol-artifact-1",
  "contractName": "PatientData",
  "sourceName": "contracts/patient.sol",
  "abi": [
    {
      "inputs": [
        {
          "internalType": "address",
          "name": "_feeToken",
          "type": "address"
        }
      ],
      "stateMutability": "nonpayable",
      "type": "constructor"
    },
    {
      "anonymous": false,
      "inputs": [
        {
          "indexed": true,
          "internalType": "address",
          "name": "_doctor",
          "type": "address"
        }
      ],
      "name": "DoctorAdded",
      "type": "event"
    },
    {
      "anonymous": false,
      "inputs": [
        {
          "indexed": true,
          "internalType": "address",
          "name": "caller",
          "type": "address"
        },
        {
          "indexed": false,
          "internalType": "address[]",
          "name": "doctors",
          "type": "address[]"
        }
      ],
      "name": "DoctorListShown",
      "type": "event"
    },
    {
      "anonymous": false,
      "inputs": [
        {
          "indexed": false,
          "internalType": "uint256",
          "name": "fee",
          "type": "uint256"
        }
      ],
      "name": "FeeSubtracted",
      "type": "event"
    },
    {
      "anonymous": false,
      "inputs": [],
      "name": "FeeSubtractionError",
      "type": "event"
    },
    {
      "anonymous": false,
      "inputs": [],
      "name": "InsufficientBalance",
      "type": "event"
    },
    {
      "inputs": [
        {
          "internalType": "address",
          "name": "_doctor",
          "type": "address"
        }
      ],
      "name": "addDoctor",
      "outputs": [],
      "stateMutability": "nonpayable",
      "type": "function"
    },
    {
      "inputs": [
        {
          "internalType": "string",
          "name": "_transactionHash",
          "type": "string"
        }
      ],
      "name": "addTransaction",
      "outputs": [],
      "stateMutability": "nonpayable",
      "type": "function"
    },
    {
      "inputs": [
        {
          "internalType": "address",
          "name": "",
          "type": "address"
        }
      ],
      "name": "doctors",
      "outputs": [
        {
          "internalType": "bool",
          "name": "",
          "type": "bool"
        }
      ],
      "stateMutability": "view",
      "type": "function"
    },
    {
      "inputs": [],
      "name": "getDoctorCount",
      "outputs": [
        {
          "internalType": "uint256",
          "name": "",
          "type": "uint256"
        }
      ],
      "stateMutability": "view",
      "type": "function"
    },
    {
      "inputs": [
        {
          "internalType": "address",
          "name": "_patient",
          "type": "address"
        }
      ],
      "name": "getPatient",
      "outputs": [
        {
          "components": [
            {
              "internalType": "string",
              "name": "name",
              "type": "string"
            },
            {
              "internalType": "bool",
              "name": "isPatient",
              "type": "bool"
            },
            {
              "internalType": "string",
              "name": "condition",
              "type": "string"
            },
            {
              "internalType": "address",
              "name": "owner",
              "type": "address"
            },
            {
              "internalType": "string",
              "name": "profile",
              "type": "string"
            },
            {
              "components": [
                {
                  "internalType": "uint256",
                  "name": "id",
                  "type": "uint256"
                },
                {
                  "internalType": "string",
                  "name": "hash",
                  "type": "string"
                }
              ],
              "internalType": "struct PatientData.Transaction[]",
              "name": "transactions",
              "type": "tuple[]"
            }
          ],
          "internalType": "struct PatientData.Patient",
          "name": "",
          "type": "tuple"
        }
      ],
      "stateMutability": "view",
      "type": "function"
    },
    {
      "inputs": [],
      "name": "getTransactionCount",
      "outputs": [
        {
          "internalType": "uint256",
          "name": "",
          "type": "uint256"
        }
      ],
      "stateMutability": "view",
      "type": "function"
    },
    {
      "inputs": [
        {
          "internalType": "uint256",
          "name": "index",
          "type": "uint256"
        }
      ],
      "name": "getTransactionHash",
      "outputs": [
        {
          "internalType": "string",
          "name": "",
          "type": "string"
        }
      ],
      "stateMutability": "view",
      "type": "function"
    },
    {
      "inputs": [
        {
          "internalType": "address",
          "name": "_address",
          "type": "address"
        }
      ],
      "name": "isDoctor",
      "outputs": [
        {
          "internalType": "bool",
          "name": "",
          "type": "bool"
        }
      ],
      "stateMutability": "view",
      "type": "function"
    },
    {
      "inputs": [
        {
          "internalType": "address",
          "name": "_address",
          "type": "address"
        }
      ],
      "name": "isPatientOwner",
      "outputs": [
        {
          "internalType": "bool",
          "name": "",
          "type": "bool"
        }
      ],
      "stateMutability": "view",
      "type": "function"
    },
    {
      "inputs": [],
      "name": "patientProfile",
      "outputs": [
        {
          "internalType": "string",
          "name": "",
          "type": "string"
        }
      ],
      "stateMutability": "view",
      "type": "function"
    },
    {
      "inputs": [
        {
          "internalType": "address",
          "name": "doctorAddress",
          "type": "address"
        }
      ],
      "name": "removeDoctor",
      "outputs": [],
      "stateMutability": "nonpayable",
      "type": "function"
    },
    {
      "inputs": [],
      "name": "showDoctorList",
      "outputs": [
        {
          "internalType": "address[]",
          "name": "",
          "type": "address[]"
        }
      ],
      "stateMutability": "view",
      "type": "function"
    },
    {
      "inputs": [
        {
          "internalType": "address",
          "name": "_doctor",
          "type": "address"
        },
        {
          "internalType": "uint256",
          "name": "_amount",
          "type": "uint256"
        }
      ],
      "name": "transferFee",
      "outputs": [],
      "stateMutability": "nonpayable",
      "type": "function"
    },
    {
      "inputs": [
        {
          "internalType": "string",
          "name": "_profile",
          "type": "string"
        }
      ],
      "name": "updatePatientProfile",
      "outputs": [],
      "stateMutability": "nonpayable",
      "type": "function"
    }
  ],
  "bytecode": "0x60806040523480156200001157600080fd5b5060405162002ce238038062002ce2833981810160405281019062000037919062000129565b336000806101000a81548173ffffffffffffffffffffffffffffffffffffffff021916908373ffffffffffffffffffffffffffffffffffffffff16021790555080600560006101000a81548173ffffffffffffffffffffffffffffffffffffffff021916908373ffffffffffffffffffffffffffffffffffffffff160217905550506200015b565b600080fd5b600073ffffffffffffffffffffffffffffffffffffffff82169050919050565b6000620000f182620000c4565b9050919050565b6200010381620000e4565b81146200010f57600080fd5b50565b6000815190506200012381620000f8565b92915050565b600060208284031215620001425762000141620000bf565b5b6000620001528482850162000112565b91505092915050565b612b77806200016b6000396000f3fe608060405234801561001057600080fd5b50600436106100ea5760003560e01c806379111c1c1161008c578063996440c611610066578063996440c614610237578063a9583c2214610267578063b5368e2014610297578063bf363b18146102c7576100ea565b806379111c1c146101df57806382e1074b146101fd57806398fc90e91461021b576100ea565b80634780468f116100c85780634780468f1461016d578063517715f0146101895780635638fec9146101a557806368e3cee5146101c3576100ea565b80630bb0bc29146100ef578063111343841461011f5780632e7700f01461014f575b600080fd5b61010960048036038101906101049190611b0f565b6102e3565b6040516101169190611b57565b60405180910390f35b61013960048036038101906101349190611ba8565b61037d565b6040516101469190611c65565b60405180910390f35b6101576105de565b6040516101649190611c96565b60405180910390f35b61018760048036038101906101829190611b0f565b610628565b005b6101a3600480360381019061019e9190611de6565b6107c5565b005b6101ad61099e565b6040516101ba9190611eed565b60405180910390f35b6101dd60048036038101906101d89190611de6565b610b15565b005b6101e7610c51565b6040516101f49190611c96565b60405180910390f35b610205610c5e565b6040516102129190611c65565b60405180910390f35b61023560048036038101906102309190611b0f565b610dbe565b005b610251600480360381019061024c9190611b0f565b6110be565b60405161025e9190611b57565b60405180910390f35b610281600480360381019061027c9190611b0f565b611114565b60405161028e9190611b57565b60405180910390f35b6102b160048036038101906102ac9190611b0f565b611134565b6040516102be9190612114565b60405180910390f35b6102e160048036038101906102dc9190612136565b6114af565b005b6000600260008373ffffffffffffffffffffffffffffffffffffffff1673ffffffffffffffffffffffffffffffffffffffff16815260200190815260200160002060030160009054906101000a900473ffffffffffffffffffffffffffffffffffffffff1673ffffffffffffffffffffffffffffffffffffffff168273ffffffffffffffffffffffffffffffffffffffff16149050919050565b606060008054906101000a900473ffffffffffffffffffffffffffffffffffffffff1673ffffffffffffffffffffffffffffffffffffffff163373ffffffffffffffffffffffffffffffffffffffff161480610429575060011515600360003373ffffffffffffffffffffffffffffffffffffffff1673ffffffffffffffffffffffffffffffffffffffff16815260200190815260200160002060009054906101000a900460ff161515145b610468576040517f08c379a000000000000000000000000000000000000000000000000000000000815260040161045f9061220e565b60405180910390fd5b600460003373ffffffffffffffffffffffffffffffffffffffff1673ffffffffffffffffffffffffffffffffffffffff1681526020019081526020016000208054905082106104ec576040517f08c379a00000000000000000000000000000000000000000000000000000000081526004016104e39061227a565b60405180910390fd5b600460003373ffffffffffffffffffffffffffffffffffffffff1673ffffffffffffffffffffffffffffffffffffffff168152602001908152602001600020828154811061053d5761053c61229a565b5b90600052602060002090600202016001018054610559906122f8565b80601f0160208091040260200160405190810160405280929190818152602001828054610585906122f8565b80156105d25780601f106105a7576101008083540402835291602001916105d2565b820191906000526020600020905b8154815290600101906020018083116105b557829003601f168201915b50505050509050919050565b6000600460003373ffffffffffffffffffffffffffffffffffffffff1673ffffffffffffffffffffffffffffffffffffffff16815260200190815260200160002080549050905090565b60008054906101000a900473ffffffffffffffffffffffffffffffffffffffff1673ffffffffffffffffffffffffffffffffffffffff163373ffffffffffffffffffffffffffffffffffffffff16146106b6576040517f08c379a00000000000000000000000000000000000000000000000000000000081526004016106ad9061239b565b60405180910390fd5b6106bf816110be565b6107c2576001600360008373ffffffffffffffffffffffffffffffffffffffff1673ffffffffffffffffffffffffffffffffffffffff16815260200190815260200160002060006101000a81548160ff0219169083151502179055506001819080600181540180825580915050600190039060005260206000200160009091909190916101000a81548173ffffffffffffffffffffffffffffffffffffffff021916908373ffffffffffffffffffffffffffffffffffffffff1602179055508073ffffffffffffffffffffffffffffffffffffffff167f69908b2e63170aa89ef89719bbe3b4c92cccc38653968ab25f4464eff7c28ac860405160405180910390a25b50565b60008054906101000a900473ffffffffffffffffffffffffffffffffffffffff1673ffffffffffffffffffffffffffffffffffffffff163373ffffffffffffffffffffffffffffffffffffffff16148061086f575060011515600360003373ffffffffffffffffffffffffffffffffffffffff1673ffffffffffffffffffffffffffffffffffffffff16815260200190815260200160002060009054906101000a900460ff161515145b6108ae576040517f08c379a00000000000000000000000000000000000000000000000000000000081526004016108a59061220e565b60405180910390fd5b6000600260003373ffffffffffffffffffffffffffffffffffffffff1673ffffffffffffffffffffffffffffffffffffffff168152602001908152602001600020600501805490509050600260003373ffffffffffffffffffffffffffffffffffffffff1673ffffffffffffffffffffffffffffffffffffffff16815260200190815260200160002060050160405180604001604052808381526020018481525090806001815401808255809150506001900390600052602060002090600202016000909190919091506000820151816000015560208201518160010190816109979190612567565b5050505050565b606060008054906101000a900473ffffffffffffffffffffffffffffffffffffffff1673ffffffffffffffffffffffffffffffffffffffff163373ffffffffffffffffffffffffffffffffffffffff161480610a4a575060011515600360003373ffffffffffffffffffffffffffffffffffffffff1673ffffffffffffffffffffffffffffffffffffffff16815260200190815260200160002060009054906101000a900460ff161515145b610a89576040517f08c379a0000000000000000000000000000000000000000000000000000000008152600401610a809061220e565b60405180910390fd5b6001805480602002602001604051908101604052809291908181526020018280548015610b0b57602002820191906000526020600020905b8160009054906101000a900473ffffffffffffffffffffffffffffffffffffffff1673ffffffffffffffffffffffffffffffffffffffff1681526020019060010190808311610ac1575b5050505050905090565b60008054906101000a900473ffffffffffffffffffffffffffffffffffffffff1673ffffffffffffffffffffffffffffffffffffffff163373ffffffffffffffffffffffffffffffffffffffff161480610bbf575060011515600360003373ffffffffffffffffffffffffffffffffffffffff1673ffffffffffffffffffffffffffffffffffffffff16815260200190815260200160002060009054906101000a900460ff161515145b610bfe576040517f08c379a0000000000000000000000000000000000000000000000000000000008152600401610bf59061220e565b60405180910390fd5b80600260003373ffffffffffffffffffffffffffffffffffffffff1673ffffffffffffffffffffffffffffffffffffffff1681526020019081526020016000206004019081610c4d9190612567565b5050565b6000600180549050905090565b606060008054906101000a900473ffffffffffffffffffffffffffffffffffffffff1673ffffffffffffffffffffffffffffffffffffffff163373ffffffffffffffffffffffffffffffffffffffff1614610cee576040517f08c379a0000000000000000000000000000000000000000000000000000000008152600401610ce59061239b565b60405180910390fd5b600260003373ffffffffffffffffffffffffffffffffffffffff1673ffffffffffffffffffffffffffffffffffffffff1681526020019081526020016000206004018054610d3b906122f8565b80601f0160208091040260200160405190810160405280929190818152602001828054610d67906122f8565b8015610db45780601f10610d8957610100808354040283529160200191610db4565b820191906000526020600020905b815481529060010190602001808311610d9757829003601f168201915b5050505050905090565b60008054906101000a900473ffffffffffffffffffffffffffffffffffffffff1673ffffffffffffffffffffffffffffffffffffffff163373ffffffffffffffffffffffffffffffffffffffff1614610e4c576040517f08c379a0000000000000000000000000000000000000000000000000000000008152600401610e439061239b565b60405180910390fd5b600360008273ffffffffffffffffffffffffffffffffffffffff1673ffffffffffffffffffffffffffffffffffffffff16815260200190815260200160002060009054906101000a900460ff16610ed8576040517f08c379a0000000000000000000000000000000000000000000000000000000008152600401610ecf90612685565b60405180910390fd5b6000600360008373ffffffffffffffffffffffffffffffffffffffff1673ffffffffffffffffffffffffffffffffffffffff16815260200190815260200160002060006101000a81548160ff02191690831515021790555060005b6001805490508110156110ba578173ffffffffffffffffffffffffffffffffffffffff1660018281548110610f6b57610f6a61229a565b5b9060005260206000200160009054906101000a900473ffffffffffffffffffffffffffffffffffffffff1673ffffffffffffffffffffffffffffffffffffffff16036110a7576001808080549050610fc391906126d4565b81548110610fd457610fd361229a565b5b9060005260206000200160009054906101000a900473ffffffffffffffffffffffffffffffffffffffff16600182815481106110135761101261229a565b5b9060005260206000200160006101000a81548173ffffffffffffffffffffffffffffffffffffffff021916908373ffffffffffffffffffffffffffffffffffffffff160217905550600180548061106d5761106c612708565b5b6001900381819060005260206000200160006101000a81549073ffffffffffffffffffffffffffffffffffffffff021916905590556110ba565b80806110b290612737565b915050610f33565b5050565b6000600360008373ffffffffffffffffffffffffffffffffffffffff1673ffffffffffffffffffffffffffffffffffffffff16815260200190815260200160002060009054906101000a900460ff169050919050565b60036020528060005260406000206000915054906101000a900460ff1681565b61113c611a4f565b600260008373ffffffffffffffffffffffffffffffffffffffff1673ffffffffffffffffffffffffffffffffffffffff1681526020019081526020016000206040518060c0016040529081600082018054611196906122f8565b80601f01602080910402602001604051908101604052809291908181526020018280546111c2906122f8565b801561120f5780601f106111e45761010080835404028352916020019161120f565b820191906000526020600020905b8154815290600101906020018083116111f257829003601f168201915b505050505081526020016001820160009054906101000a900460ff16151515158152602001600282018054611243906122f8565b80601f016020809104026020016040519081016040528092919081815260200182805461126f906122f8565b80156112bc5780601f10611291576101008083540402835291602001916112bc565b820191906000526020600020905b81548152906001019060200180831161129f57829003601f168201915b505050505081526020016003820160009054906101000a900473ffffffffffffffffffffffffffffffffffffffff1673ffffffffffffffffffffffffffffffffffffffff1673ffffffffffffffffffffffffffffffffffffffff16815260200160048201805461132b906122f8565b80601f0160208091040260200160405190810160405280929190818152602001828054611357906122f8565b80156113a45780601f10611379576101008083540402835291602001916113a4565b820191906000526020600020905b81548152906001019060200180831161138757829003601f168201915b5050505050815260200160058201805480602002602001604051908101604052809291908181526020016000905b828210156114a057838290600052602060002090600202016040518060400160405290816000820154815260200160018201805461140f906122f8565b80601f016020809104026020016040519081016040528092919081815260200182805461143b906122f8565b80156114885780601f1061145d57610100808354040283529160200191611488565b820191906000526020600020905b81548152906001019060200180831161146b57829003601f168201915b505050505081525050815260200190600101906113d2565b50505050815250509050919050565b60008054906101000a900473ffffffffffffffffffffffffffffffffffffffff1673ffffffffffffffffffffffffffffffffffffffff163373ffffffffffffffffffffffffffffffffffffffff161461153d576040517f08c379a00000000000000000000000000000000000000000000000000000000081526004016115349061239b565b60405180910390fd5b600360008373ffffffffffffffffffffffffffffffffffffffff1673ffffffffffffffffffffffffffffffffffffffff16815260200190815260200160002060009054906101000a900460ff166115c9576040517f08c379a00000000000000000000000000000000000000000000000000000000081526004016115c0906127cb565b60405180910390fd5b80600560009054906101000a900473ffffffffffffffffffffffffffffffffffffffff1673ffffffffffffffffffffffffffffffffffffffff166370a08231336040518263ffffffff1660e01b815260040161162591906127fa565b602060405180830381865afa158015611642573d6000803e3d6000fd5b505050506040513d601f19601f82011682018060405250810190611666919061282a565b10156116a7576040517f08c379a000000000000000000000000000000000000000000000000000000000815260040161169e906128a3565b60405180910390fd5b6116f6338383600560009054906101000a900473ffffffffffffffffffffffffffffffffffffffff1673ffffffffffffffffffffffffffffffffffffffff16611731909392919063ffffffff16565b7f1444dc0194e0598d51cf4772f9d0ce389695f5824ae2d8a6d0d5824024eaa12c816040516117259190611c96565b60405180910390a15050565b6117b4846323b872dd60e01b858585604051602401611752939291906128c3565b604051602081830303815290604052907bffffffffffffffffffffffffffffffffffffffffffffffffffffffff19166020820180517bffffffffffffffffffffffffffffffffffffffffffffffffffffffff83818316178352505050506117ba565b50505050565b600061181c826040518060400160405280602081526020017f5361666545524332303a206c6f772d6c6576656c2063616c6c206661696c65648152508573ffffffffffffffffffffffffffffffffffffffff166118829092919063ffffffff16565b905060008151148061183e57508080602001905181019061183d9190612926565b5b61187d576040517f08c379a0000000000000000000000000000000000000000000000000000000008152600401611874906129c5565b60405180910390fd5b505050565b6060611891848460008561189a565b90509392505050565b6060824710156118df576040517f08c379a00000000000000000000000000000000000000000000000000000000081526004016118d690612a57565b60405180910390fd5b6000808673ffffffffffffffffffffffffffffffffffffffff1685876040516119089190612abe565b60006040518083038185875af1925050503d8060008114611945576040519150601f19603f3d011682016040523d82523d6000602084013e61194a565b606091505b509150915061195b87838387611967565b92505050949350505050565b606083156119c95760008351036119c157611981856119dc565b6119c0576040517f08c379a00000000000000000000000000000000000000000000000000000000081526004016119b790612b21565b60405180910390fd5b5b8290506119d4565b6119d383836119ff565b5b949350505050565b6000808273ffffffffffffffffffffffffffffffffffffffff163b119050919050565b600082511115611a125781518083602001fd5b806040517f08c379a0000000000000000000000000000000000000000000000000000000008152600401611a469190611c65565b60405180910390fd5b6040518060c001604052806060815260200160001515815260200160608152602001600073ffffffffffffffffffffffffffffffffffffffff16815260200160608152602001606081525090565b6000604051905090565b600080fd5b600080fd5b600073ffffffffffffffffffffffffffffffffffffffff82169050919050565b6000611adc82611ab1565b9050919050565b611aec81611ad1565b8114611af757600080fd5b50565b600081359050611b0981611ae3565b92915050565b600060208284031215611b2557611b24611aa7565b5b6000611b3384828501611afa565b91505092915050565b60008115159050919050565b611b5181611b3c565b82525050565b6000602082019050611b6c6000830184611b48565b92915050565b6000819050919050565b611b8581611b72565b8114611b9057600080fd5b50565b600081359050611ba281611b7c565b92915050565b600060208284031215611bbe57611bbd611aa7565b5b6000611bcc84828501611b93565b91505092915050565b600081519050919050565b600082825260208201905092915050565b60005b83811015611c0f578082015181840152602081019050611bf4565b60008484015250505050565b6000601f19601f8301169050919050565b6000611c3782611bd5565b611c418185611be0565b9350611c51818560208601611bf1565b611c5a81611c1b565b840191505092915050565b60006020820190508181036000830152611c7f8184611c2c565b905092915050565b611c9081611b72565b82525050565b6000602082019050611cab6000830184611c87565b92915050565b600080fd5b600080fd5b7f4e487b7100000000000000000000000000000000000000000000000000000000600052604160045260246000fd5b611cf382611c1b565b810181811067ffffffffffffffff82111715611d1257611d11611cbb565b5b80604052505050565b6000611d25611a9d565b9050611d318282611cea565b919050565b600067ffffffffffffffff821115611d5157611d50611cbb565b5b611d5a82611c1b565b9050602081019050919050565b82818337600083830152505050565b6000611d89611d8484611d36565b611d1b565b905082815260208101848484011115611da557611da4611cb6565b5b611db0848285611d67565b509392505050565b600082601f830112611dcd57611dcc611cb1565b5b8135611ddd848260208601611d76565b91505092915050565b600060208284031215611dfc57611dfb611aa7565b5b600082013567ffffffffffffffff811115611e1a57611e19611aac565b5b611e2684828501611db8565b91505092915050565b600081519050919050565b600082825260208201905092915050565b6000819050602082019050919050565b611e6481611ad1565b82525050565b6000611e768383611e5b565b60208301905092915050565b6000602082019050919050565b6000611e9a82611e2f565b611ea48185611e3a565b9350611eaf83611e4b565b8060005b83811015611ee0578151611ec78882611e6a565b9750611ed283611e82565b925050600181019050611eb3565b5085935050505092915050565b60006020820190508181036000830152611f078184611e8f565b905092915050565b600082825260208201905092915050565b6000611f2b82611bd5565b611f358185611f0f565b9350611f45818560208601611bf1565b611f4e81611c1b565b840191505092915050565b611f6281611b3c565b82525050565b600081519050919050565b600082825260208201905092915050565b6000819050602082019050919050565b611f9d81611b72565b82525050565b6000604083016000830151611fbb6000860182611f94565b5060208301518482036020860152611fd38282611f20565b9150508091505092915050565b6000611fec8383611fa3565b905092915050565b6000602082019050919050565b600061200c82611f68565b6120168185611f73565b93508360208202850161202885611f84565b8060005b8581101561206457848403895281516120458582611fe0565b945061205083611ff4565b925060208a0199505060018101905061202c565b50829750879550505050505092915050565b600060c08301600083015184820360008601526120938282611f20565b91505060208301516120a86020860182611f59565b50604083015184820360408601526120c08282611f20565b91505060608301516120d56060860182611e5b565b50608083015184820360808601526120ed8282611f20565b91505060a083015184820360a08601526121078282612001565b9150508091505092915050565b6000602082019050818103600083015261212e8184612076565b905092915050565b6000806040838503121561214d5761214c611aa7565b5b600061215b85828601611afa565b925050602061216c85828601611b93565b9150509250929050565b7f4f6e6c79207468652070617469656e74206f72207468652070617469656e742760008201527f7320646f63746f72732063616e2061636365737320746869732066756e63746960208201527f6f6e2e0000000000000000000000000000000000000000000000000000000000604082015250565b60006121f8604383611be0565b915061220382612176565b606082019050919050565b60006020820190508181036000830152612227816121eb565b9050919050565b7f496e76616c6964207472616e73616374696f6e20696e64657800000000000000600082015250565b6000612264601983611be0565b915061226f8261222e565b602082019050919050565b6000602082019050818103600083015261229381612257565b9050919050565b7f4e487b7100000000000000000000000000000000000000000000000000000000600052603260045260246000fd5b7f4e487b7100000000000000000000000000000000000000000000000000000000600052602260045260246000fd5b6000600282049050600182168061231057607f821691505b602082108103612323576123226122c9565b5b50919050565b7f4f6e6c79207468652070617469656e742063616e20616363657373207468697360008201527f2066756e6374696f6e2e00000000000000000000000000000000000000000000602082015250565b6000612385602a83611be0565b915061239082612329565b604082019050919050565b600060208201905081810360008301526123b481612378565b9050919050565b60008190508160005260206000209050919050565b60006020601f8301049050919050565b600082821b905092915050565b60006008830261241d7fffffffffffffffffffffffffffffffffffffffffffffffffffffffffffffffff826123e0565b61242786836123e0565b95508019841693508086168417925050509392505050565b6000819050919050565b600061246461245f61245a84611b72565b61243f565b611b72565b9050919050565b6000819050919050565b61247e83612449565b61249261248a8261246b565b8484546123ed565b825550505050565b600090565b6124a761249a565b6124b2818484612475565b505050565b5b818110156124d6576124cb60008261249f565b6001810190506124b8565b5050565b601f82111561251b576124ec816123bb565b6124f5846123d0565b81016020851015612504578190505b612518612510856123d0565b8301826124b7565b50505b505050565b600082821c905092915050565b600061253e60001984600802612520565b1980831691505092915050565b6000612557838361252d565b9150826002028217905092915050565b61257082611bd5565b67ffffffffffffffff81111561258957612588611cbb565b5b61259382546122f8565b61259e8282856124da565b600060209050601f8311600181146125d157600084156125bf578287015190505b6125c9858261254b565b865550612631565b601f1984166125df866123bb565b60005b82811015612607578489015182556001820191506020850194506020810190506125e2565b868310156126245784890151612620601f89168261252d565b8355505b6001600288020188555050505b505050505050565b7f446f63746f7220646f6573206e6f742065786973740000000000000000000000600082015250565b600061266f601583611be0565b915061267a82612639565b602082019050919050565b6000602082019050818103600083015261269e81612662565b9050919050565b7f4e487b7100000000000000000000000000000000000000000000000000000000600052601160045260246000fd5b60006126df82611b72565b91506126ea83611b72565b9250828203905081811115612702576127016126a5565b5b92915050565b7f4e487b7100000000000000000000000000000000000000000000000000000000600052603160045260246000fd5b600061274282611b72565b91507fffffffffffffffffffffffffffffffffffffffffffffffffffffffffffffffff8203612774576127736126a5565b5b600182019050919050565b7f496e76616c696420646f63746f72206164647265737300000000000000000000600082015250565b60006127b5601683611be0565b91506127c08261277f565b602082019050919050565b600060208201905081810360008301526127e4816127a8565b9050919050565b6127f481611ad1565b82525050565b600060208201905061280f60008301846127eb565b92915050565b60008151905061282481611b7c565b92915050565b6000602082840312156128405761283f611aa7565b5b600061284e84828501612815565b91505092915050565b7f496e73756666696369656e742062616c616e6365000000000000000000000000600082015250565b600061288d601483611be0565b915061289882612857565b602082019050919050565b600060208201905081810360008301526128bc81612880565b9050919050565b60006060820190506128d860008301866127eb565b6128e560208301856127eb565b6128f26040830184611c87565b949350505050565b61290381611b3c565b811461290e57600080fd5b50565b600081519050612920816128fa565b92915050565b60006020828403121561293c5761293b611aa7565b5b600061294a84828501612911565b91505092915050565b7f5361666545524332303a204552433230206f7065726174696f6e20646964206e60008201527f6f74207375636365656400000000000000000000000000000000000000000000602082015250565b60006129af602a83611be0565b91506129ba82612953565b604082019050919050565b600060208201905081810360008301526129de816129a2565b9050919050565b7f416464726573733a20696e73756666696369656e742062616c616e636520666f60008201527f722063616c6c0000000000000000000000000000000000000000000000000000602082015250565b6000612a41602683611be0565b9150612a4c826129e5565b604082019050919050565b60006020820190508181036000830152612a7081612a34565b9050919050565b600081519050919050565b600081905092915050565b6000612a9882612a77565b612aa28185612a82565b9350612ab2818560208601611bf1565b80840191505092915050565b6000612aca8284612a8d565b915081905092915050565b7f416464726573733a2063616c6c20746f206e6f6e2d636f6e7472616374000000600082015250565b6000612b0b601d83611be0565b9150612b1682612ad5565b602082019050919050565b60006020820190508181036000830152612b3a81612afe565b905091905056fea26469706673582212205f900a4c00c37cb1a51f8e26873364b01cf7b9f8bd7d557c70d34e8b11b072da64736f6c63430008140033",
  "linkReferences": {},
  "deployedLinkReferences": {}
}